:100000000C9463000C948B000C948B000C949C0457
:100010000C949C040C949C040C948B000C948B000A
:100020000C948B000C948B000C948B000C948B0024
:100030000C948B000C948B000C948B000C948B0014
:100040000C9452040C948B000C9420040C94FA032E
:100050000C948B000C948B000C948B000C948B00F4
:100060000C948B000C948B000000000024002700EF
:100070002A0000000008000201000003040700003D
:1000800000000000000000000000230026002900FE
:1000900000000000250028002B00040404040404D0
:1000A0000404020202020202030303030303010227
:1000B00004081020408001020408102001020408F6
:1000C00010201405BC0711241FBECFEFD8E0DEBFFF
:1000D000CDBF11E0A0E0B1E0E6E2F0E102C00590A2
:1000E0000D92A832B107D9F722E0A8E2B1E001C031
:1000F0001D92A533B207E1F710E0C2E6D0E004C0DC
:100100002197FE010E940008C136D107C9F70E945D
:10011000C9050C9406080C940000AF92BF92CF92D0
:10012000DF92EF92FF920F931F93CF93DF936C01B7
:100130007B018B01040F151FEB015E01AE18BF0898
:10014000C017D10759F06991D601ED91FC9101904A
:10015000F081E02DC6010995892B79F7C501DF9162
:10016000CF911F910F91FF90EF90DF90CF90BF90B4
:10017000AF900895FC01538D448D252F30E0842FDE
:1001800090E0821B930B541710F0CF9608950197BF
:100190000895FC01918D828D981761F0A28DAE0FAC
:1001A000BF2FB11D5D968C91928D9F5F9F73928F33
:1001B00090E008958FEF9FEF0895FC01918D828D5F
:1001C000981731F0828DE80FF11D858D90E008952C
:1001D0008FEF9FEF0895FC01918D228D892F90E084
:1001E000805C9F4F821B91098F739927089585E743
:1001F00091E00E94EB0021E0892B09F420E0822F9E
:10020000089580E090E0892B29F00E94F700811189
:100210000C9400000895FC01A48DA80FB92FB11D06
:10022000A35ABF4F2C91848D90E001968F7399272C
:10023000848FA689B7892C93A089B1898C9183700A
:1002400080648C93938D848D981306C00288F38903
:10025000E02D80818F7D80830895EF92FF920F9330
:100260001F93CF93DF93EC0181E0888F9B8D8C8D62
:1002700098131AC0E889F989808185FF15C09FB756
:10028000F894EE89FF896083E889F9898081837019
:10029000806480839FBF81E090E0DF91CF911F91C8
:1002A0000F91FF90EF900895F62E0B8D10E00F5FE9
:1002B0001F4F0F731127E02E8C8D8E110CC00FB6BF
:1002C00007FCFACFE889F989808185FFF5CFCE0157
:1002D0000E940B01F1CFEB8DEC0FFD2FF11DE35AC6
:1002E000FF4FF0829FB7F8940B8FEA89FB898081DA
:1002F0008062CFCFCF93DF93EC01888D8823B9F054
:10030000AA89BB89E889F9898C9185FD03C0808120
:1003100086FD0DC00FB607FCF7CF8C9185FFF2CF9D
:10032000808185FFEDCFCE010E940B01E9CFDF91E7
:10033000CF91089590E0FC01EE58FF4F2491FC010D
:10034000E255FF4F3491FC01E656FF4FE491EE2356
:10035000C9F0222339F0233001F1A8F4213019F13A
:10036000223029F1F0E0EE0FFF1FE057FF4FA5917B
:10037000B4918FB7F894EC91611126C030953E236B
:100380003C938FBF08952730A9F02830C9F024305E
:1003900049F7809180008F7D03C0809180008F7726
:1003A00080938000DFCF84B58F7784BDDBCF84B5A9
:1003B0008F7DFBCF8091B0008F778093B000D2CF3C
:1003C0008091B0008F7DF9CF3E2BDACFCF93DF93B2
:1003D00090E0FC01E255FF4F249186569F4FFC01AF
:1003E00084918823D1F090E0880F991FFC01E8598F
:1003F000FF4FA591B491FC01E057FF4FC591D491F7
:1004000061110EC09FB7F8948C91E22FE0958E2376
:100410008C932881E223E8839FBFDF91CF910895D9
:100420008FB7F894EC91E22BEC938FBFF6CF1F932C
:10043000CF93DF93182FEB0161E00E94E601209734
:1004400039F460E0812FDF91CF911F910C949A01D4
:10045000E12FF0E0EE58FF4FE491E33039F148F43A
:10046000E130B9F0E230E9F0C038D10554F361E091
:10047000E9CFE73029F1E83059F1E430A9F780916C
:100480008000806280938000D0938B00C0938A00AC
:1004900004C084B5806884BDC7BDDF91CF911F9132
:1004A000089584B5806284BDC8BDF7CF8091800077
:1004B000806880938000D0938900C0938800EDCF3E
:1004C0008091B00080688093B000C093B300E5CF06
:1004D0008091B00080628093B000C093B400DDCF03
:1004E0003FB7F89480916D0190916E01A0916F01DA
:1004F000B091700126B5A89B05C02F3F19F0019659
:10050000A11DB11D3FBFBA2FA92F982F8827BC016D
:10051000CD01620F711D811D911D42E0660F771F95
:10052000881F991F4A95D1F708958F929F92AF9295
:10053000BF92CF92DF92EF92FF924B015C010E943B
:1005400070026B017C010E9470026C197D098E099A
:100550009F09683E734081059105A8F321E0821A46
:100560009108A108B10888EEC80E83E0D81EE11CEE
:10057000F11C81149104A104B10429F7FF90EF90BC
:10058000DF90CF90BF90AF909F908F9008952FB73E
:10059000F8946091690170916A0180916B0190916A
:1005A0006C012FBF089520917301309174012817B9
:1005B000390771F49091710180917201981741F09F
:1005C000E0917101F0E0E85DFE4F808190E00895D8
:1005D0008FEF9FEF08950895EF92FF920F931F936F
:1005E000CF93DF93DC015C96ED90FC905D97E11476
:1005F000F10479F481E090E013969C938E93129726
:1006000090E080E0DF91CF911F910F91FF90EF90EC
:1006100008955196ED91FC91529750968C91509778
:10062000982F90950FB75E962C915E97122F1270AF
:1006300021FD6095F8942081112319F1282B208346
:10064000E7012197F1F728E0462F50E0308160FF65
:100650001AC0382B3083E7012197F1F7BA0175955D
:100660006795215089F7112381F080818923808348
:100670000FBF5C968D919C910197F1F781E090E01E
:10068000C1CF2923DCCF3923E5CF9081892BEFCF50
:1006900020917301309174012817390771F480910A
:1006A00072012091710190E0805C9F4F821B910943
:1006B00060E470E00E94D807089590E080E008951B
:1006C000209173013091740128173907B9F4909182
:1006D000710180917201981789F0E0917101F0E049
:1006E000E85DFE4F80812091710130E02F5F3F4F28
:1006F0002F7333272093710190E008958FEF9FEFC0
:10070000089590E080E00895CF93C62FBC0185E066
:100710000E94170261E0C11101C060E084E0CF9146
:100720000C949A018F929F92AF92BF92EF92FF9298
:100730000F931F93CF93DF937C01C0910001D09161
:100740000101C81BD90B8EE492E0C89F8001C99FAC
:10075000100DD89F100D11241C161D061CF01195AC
:10076000019511090E94C702809012029090130215
:10077000A0901402B0901502AB01BC0148195909B0
:100780006A097B09012E000C220B330B0417150795
:100790002607370798F061E01C161D060CF060E094
:1007A00088EC90E0DF91CF911F910F91FF90EF9037
:1007B000BF90AF909F908F900C9484038EE68093AF
:1007C000020165E686E192E00E94EC0260E090E0C2
:1007D00080E00E948403F0920101E0920001DF9129
:1007E000CF911F910F91FF90EF90BF90AF909F908E
:1007F0008F9008951F920F920FB60F9211242F938E
:100800003F934F935F936F937F938F939F93AF9398
:10081000BF93EF93FF9385E791E00E940B01FF9157
:10082000EF91BF91AF919F918F917F916F915F9168
:100830004F913F912F910F900FBE0F901F901895E1
:100840001F920F920FB60F9211242F938F939F93A5
:10085000EF93FF93E0918501F09186018081E09113
:100860008B01F0918C0182FD1BC0908180918E01E3
:100870008F5F8F7320918F01821741F0E0918E017D
:10088000F0E0EB58FE4F958F80938E01FF91EF9132
:100890009F918F912F910F900FBE0F901F901895E1
:1008A0008081F4CF1F920F920FB60F9211242F93D5
:1008B0003F938F939F93AF93BF93809169019091E2
:1008C0006A01A0916B01B0916C013091680123E045
:1008D000230F2D3758F50196A11DB11D20936801F6
:1008E0008093690190936A01A0936B01B0936C01AE
:1008F00080916D0190916E01A0916F01B091700196
:100900000196A11DB11D80936D0190936E01A0937E
:100910006F01B0937001BF91AF919F918F913F9103
:100920002F910F900FBE0F901F90189526E8230F60
:100930000296A11DB11DD2CF1F920F920FB60F923A
:1009400011242F933F934F935F936F937F938F93D4
:100950009F93AF93BF93EF93FF93E0917301F09157
:100960007401309749F0A685B7858585968D91FFEE
:1009700014C09C918923A1F4FF91EF91BF91AF9195
:100980009F918F917F916F915F914F913F912F91A7
:100990000F900FBE0F901F9018959C91892361F7BF
:1009A000A389B4899C918589809589238C938689B4
:1009B00097890197F1F7608D718DA685B78555856B
:1009C00038E020E0CB010197F1F7822F90E0959578
:1009D0008795282F4C91452309F02068315091F7D5
:1009E000868D81FD20958091720190E001968F7334
:1009F000992730917101381799F0A0917201B0E0F8
:100A0000A85DBE4F2C9380937201828D938D0197C8
:100A1000F1F7A389B4898C919589892B8C93ACCFFC
:100A2000868D8160868FF1CF1092780110927701C8
:100A300088EE93E0A0E0B0E08093790190937A0192
:100A4000A0937B01B0937C0127E031E030937601E5
:100A50002093750125EC30E03093820120938101D1
:100A600024EC30E0309384012093830120EC30E0CB
:100A7000309386012093850121EC30E0309388018A
:100A80002093870122EC30E030938A012093890182
:100A900026EC30E030938C0120938B0110928E0174
:100AA00010928F01109290011092910110921902F0
:100AB0001092180280931A0290931B02A0931C02BA
:100AC000B0931D0289E191E0909317028093160282
:100AD00010922D0210922C0210922F0210922E02D0
:100AE00010923102109230021092330210923202B0
:100AF000609134026E7F6D7F609334026695617001
:100B000081E0682783E00E949A0161E083E00E940F
:100B1000E601E1EBF0E0E491E0932602EDE9F0E09C
:100B2000E491F0E0EE0FFF1FE057FF4F85919491A5
:100B3000909328028093270260E082E00E94E60101
:100B40008091340281FD04C061E082E00E949A013C
:100B500082E080932202E0EBF0E0E491E093230254
:100B6000ECE9F0E0E491F0E0EE0FFF1FEA57FF4FF1
:100B70008591949190932502809324020E94C7024C
:100B800060931202709313028093140290931502E3
:100B90000895789484B5826084BD84B5816084BDF5
:100BA00085B5826085BD85B5816085BD80916E000B
:100BB000816080936E00109281008091810082603C
:100BC0008093810080918100816080938100809179
:100BD00080008160809380008091B1008460809368
:100BE000B1008091B00081608093B00080917A0064
:100BF000846080937A0080917A00826080937A008A
:100C000080917A00816080937A0080917A00806878
:100C100080937A001092C100CEEFDFEFC230D10591
:100C200028F061E08C2F8E5F0E94E6012196CC3087
:100C3000D105A1F760E08EE00E94E601E091850118
:100C4000F091860182E08083E0918101F091820140
:100C50001082E0918301F09184018FEC80831092E7
:100C60008D01E0918901F0918A0186E08083E09115
:100C70008701F0918801808180618083E091870104
:100C8000F0918801808188608083E0918701F091F4
:100C90008801808180688083E0918701F0918801DC
:100CA00080818F7D808310923102109230021092E9
:100CB0002F0210922E0210922D0210922C028DE91A
:100CC00091E0909333028093320290912202963108
:100CD00008F047C02DEB30E030932D0220932C021A
:100CE0002BE931E030932F0220932E022CE231E0E9
:100CF00030933102209330022091680084E09830D4
:100D000048F031E09E3008F430E081E001C0880F07
:100D10003A95EAF7822B809368002DE630E0983010
:100D200050F02BE630E09E3030F02CE630E096318B
:100D300010F030E020E030932A0220932902292F7E
:100D400030E0983008F07EC081E001C0880F9A95AD
:100D5000EAF780932B02809132029091330201973F
:100D6000F1F78091300290913102892B49F1E091A5
:100D70007301F091740122E0E631F20709F1309736
:100D800039F0A389B4899C918589809589238C93B6
:100D9000809134028E7F80933402109272011092FF
:100DA000710186E192E09093740180937301E09168
:100DB0002902F0912A02808190912B02892B808355
:100DC00000E010E0DEE686E192E00E944803892B15
:100DD00011F1809102018E36F1F486E192E00E94D9
:100DE0006003C82F682F85E791E00E942D01C0376E
:100DF00031F08FEC8C0F873010F0C336C9F4C093FC
:100E000002010E94C7026093120270931302809342
:100E100014029093150280910201853309F47CC07D
:100E200034F5823309F472C0D4F4813309F469C013
:100E30000115110541F20E94F700882321F20E945A
:100E40000000C1CF9E3040F42850310981E001C03C
:100E5000880F2A95EAF77DCF2E503109F7CF8333DB
:100E600009F457C0843321F784E090E04CC0873305
:100E700009F468C00CF453C0833609F465C08037A8
:100E8000B9F60E94C702C0901202D0901302E090FF
:100E90001402F09015026C197D098E099F09633CBC
:100EA00071408105910550F464EB70E086E00E948A
:100EB000170261E087E00E949A01BACF0E94C70240
:100EC0006C197D098E099F0965387340810591056C
:100ED00038F464EB70E086E00E94170260E0EACF2D
:100EE000D093020170E060E086E00E94170261E0AA
:100EF00087E00E949A0165E686E192E00E94EC029A
:100F000097CF81E090E00E94920392CF82E090E040
:100F1000FACF83E090E0F7CF85E090E0F4CF61E096
:100F200088EC90E00E94840368EE73E080E090E03B
:100F30000E94950260E090E080E00E948403D093DC
:100F40000201D9CF60E0ECCF61E084E690E00E943E
:100F5000840368EB7BE080E090E00E949502D093F0
:100F6000020165E686E192E00E94EC0260E090E01A
:100F700080E00E9484035CCF89E191E090931702A6
:100F80008093160280917301909174018651924072
:100F900071F4E0912902F0912A02908180912B0254
:100FA00080958923808310927401109273010895B3
:100FB00097FB072E16F4009407D077FD09D00E9406
:100FC000EC0707FC05D03EF4909581959F4F08955E
:100FD000709561957F4F0895AA1BBB1B51E107C017
:100FE000AA1FBB1FA617B70710F0A61BB70B881FB9
:100FF000991F5A95A9F780959095BC01CD01089548
:10100000EE0FFF1F0590F491E02D099410E0C2E669
:10101000D0E004C0FE010E9400082196C336D1072B
:06102000C9F7F894FFCFB0
:1010260001006E000000002D018D00BA007A01EB70
:1010360000C900DD0000000000EC028D008103EB1A
:081046000248036003D302001D
:00000001FF
